:100000000C942A000C9447000C9447000C94470071
:100010000C9447000C9447000C9447000C94580D26
:100020000C9447000C9447000C9447000C94470034
:100030000C9447000C94CB1F0C94FE1F0C943120A1
:100040000C9447000C9447000C9447000C94470014
:100050000C94470011241FBECFE5D8E0DEBFCDBF12
:1000600010E0A0E6B0E0E2E0F4E402C005900D92FA
:10007000AC39B107D9F716E0ACE9B0E001C01D9288
:10008000A636B107E1F70E9492020C94FF210C946E
:100090000000DF93CF9300D00F92CDB7DEB79B83E4
:1000A0008A838091A0059091A10560E070E040E016
:1000B00050E020E00E940E0F898389818130A1F5F4
:1000C00080918505863051F480918605813019F440
:1000D0000E94D2001EC00E94DF001BC080918505D7
:1000E000873051F480918605813019F40E94EC002C
:1000F00010C00E94F9000DC080918505883049F438
:1001000080918605813019F40E94060102C00E9488
:10011000130180919C0590919D0560E070E040E0A6
:1001200050E020E00E94230E83E090E00E94BF1385
:10013000B8CFDF93CF93CDB7DEB780919C0090917D
:100140009D000E941B2180916500909166000E9495
:100150001B2180916700909168000E941B21809173
:10016000690090916A000E941B21CF91DF91089550
:10017000DF93CF93CDB7DEB780919C0090919D0027
:100180000E943A21CF91DF910895DF93CF93CDB7AD
:10019000DEB780919C0090919D000E946121CF91DB
:1001A000DF910895DF93CF93CDB7DEB780916500DF
:1001B000909166000E943A21CF91DF910895DF93DC
:1001C000CF93CDB7DEB780916500909166000E9415
:1001D0006121CF91DF910895DF93CF93CDB7DEB743
:1001E00080916700909168000E943A21CF91DF9141
:1001F0000895DF93CF93CDB7DEB7809167009091DC
:1002000068000E946121CF91DF910895DF93CF9321
:10021000CDB7DEB78091690090916A000E943A21C3
:10022000CF91DF910895DF93CF93CDB7DEB7809163
:10023000690090916A000E946121CF91DF91089539
:10024000DF93CF9300D000D0CDB7DEB79C838B83F4
:100250000E948A1E813009F0F0C080919C05909127
:100260009D0560E070E040E050E020E00E940E0F4D
:1002700089838981813009F0E0C0CE0102960E9415
:10028000971E8A818E3709F0D8C086E895E060E035
:1002900070E04FE050E00E94D12185E995E060E0F8
:1002A00070E045E050E00E94D121CE0102960E940C
:1002B000971E39C08091A100882321F48A81809300
:1002C000850528C08A81803621F481E080939E00D4
:1002D00021C080919E00813079F480919F00882F09
:1002E00090E02A81FC01EB56FA4F208380919F0019
:1002F0008F5F80939F000EC08091A000882F90E0B8
:100300002A81FC01EA57FA4F20838091A0008F5F79
:100310008093A0008091A1008F5F8093A100CE0107
:1003200002960E94971E8A818E3721F6809185055C
:10033000813061F48091A6059091A70560E070E09E
:1003400040E050E020E00E94230E6FC080918505C0
:10035000823061F48091B0059091B10560E070E069
:1003600040E050E020E00E94230E5FC080918505B0
:10037000833061F48091AE059091AF0560E070E04C
:1003800040E050E020E00E94230E4FC080918505A0
:10039000843061F48091A8059091A90560E070E037
:1003A00040E050E020E00E94230E3FC08091850590
:1003B000853061F48091A2059091A30560E070E022
:1003C00040E050E020E00E94230E2FC08091850580
:1003D000863061F48091A0059091A10560E070E005
:1003E00040E050E020E00E94230E1FC08091850570
:1003F000873061F48091A0059091A10560E070E0E4
:1004000040E050E020E00E94230E0FC0809185055F
:10041000883059F48091A0059091A10560E070E0CA
:1004200040E050E020E00E94230E1092A0001092C5
:100430009E0010929F001092A10082E090E00E9426
:10044000BF1306CFDF93CF93CDB7DEB76D970FB64F
:10045000F894DEBF0FBECDBFCE0101969D8B8C8B75
:10046000E2E8F0E0FF8BEE8BF3E1F88FEE89FF8995
:1004700000808E899F8901969F8B8E8BEC89FD89E8
:1004800000828C899D8901969D8B8C8B988D9150D3
:10049000988FE88DEE2351F78DB79EB743970FB62F
:1004A000F8949EBF0FBE8DBF8DB79EB701969A8FF1
:1004B000898FFE013196FC8FEB8FF3E1FD8FEB8D81
:1004C000FC8D00808B8D9C8D01969C8F8B8FE98D90
:1004D000FA8D0082898D9A8D01969A8F898F9D8DD4
:1004E00091509D8FED8DEE2351F70E941B1D8DB70E
:1004F0009EB743960FB6F8949EBF0FBE8DBF0E9465
:10050000BF030E94990080916B0090916C000E9443
:1005100064206D960FB6F894DEBF0FBECDBFCF91AD
:10052000DF910895DF93CF93CDB7DEB70E9422020B
:100530000E94D9020E94F41380E090E0CF91DF91F5
:100540000895DF93CF9300D00F92CDB7DEB79B8392
:100550008A838091B0059091B10560E070E040E041
:1005600050E020E00E940E0F898389818130E1F400
:1005700086E895E00E94AA2124E0823D920729F4B2
:1005800081E090E00E94021F04C080E090E00E94A1
:10059000021F80919C0590919D0560E070E040E015
:1005A00050E020E00E94230E83E090E00E94BF1301
:1005B000D0CFAF92BF92CF92DF92EF92FF920F9384
:1005C000DF93CF93CDB7DEB781E061E00E94040EE8
:1005D00090939D0580939C0581E060E00E94040E4D
:1005E0009093B1058093B00581E060E00E94040E15
:1005F0009093A7058093A60581E060E00E94040E19
:100600009093AF058093AE0581E060E00E94040EF8
:100610009093A9058093A80581E060E00E94040EF4
:100620009093A3058093A20581E060E00E94040EF0
:100630009093A1058093A0058091AC059091AD05A4
:10064000FC0180E291E060E070E045E550E020E0F0
:1006500030E002E07F01CC24DD24AA24BB240E94E8
:10066000FB1180919E0590919F05FC0181EA92E02B
:1006700060E070E045E550E020E030E001E07F011F
:10068000CC24DD24AA24BB240E94FB1180919A056E
:1006900090919B05FC018EE695E060E070E045E5F9
:1006A00050E020E030E001E07F01CC24DD24AA24EA
:1006B000BB240E94FB118091A4059091A505FC012B
:1006C0008FE893E060E070E045E550E020E030E046
:1006D00003E07F01CC24DD24AA24BB240E94FB116B
:1006E0008091AA059091AB05FC0189E490E060E05F
:1006F00070E045E550E020E030E001E07F01CC24EF
:10070000DD24AA24BB240E94FB11CF91DF910F911D
:10071000FF90EF90DF90CF90BF90AF900895DF9360
:10072000CF9300D00F92CDB7DEB79B838A838091A1
:10073000A2059091A30560E070E040E050E020E069
:100740000E940E0F898389818130A1F480918605F2
:10075000813019F40E94B80002C00E94C500809147
:100760009C0590919D0560E070E040E050E020E045
:100770000E94230E83E090E00E94BF13D8CFDF9346
:10078000CF930F92CDB7DEB719823EC08981882FF3
:1007900090E0880F991F9C01220F331F220F331FF7
:1007A000220F331F820F931F8E549A4F60E070E028
:1007B0004FE050E00E94D1218981882F90E0880F7E
:1007C000991F9C01220F331F220F331F220F331F4B
:1007D000820F931FFC01EF53FA4F1182108289811F
:1007E000882F90E0880F991F9C01220F331F220F42
:1007F000331F220F331F820F931FFC01ED53FA4F5B
:10080000108289818F5F898389818A3008F4BECF05
:100810000F90CF91DF910895DF93CF93CDB7DEB7DF
:1008200028970FB6F894DEBF0FBECDBF9C838B8395
:100830007E836D8358874F8382E08A83198254C0F8
:100840008981882F90E0880F991F9C01220F331F08
:10085000220F331F220F331F820F931FFC01ED5312
:10086000FA4F80818130E9F58981882F90E0880FE7
:10087000991F9C01220F331F220F331F220F331F9A
:10088000820F931F8E549A4F2B813C81B9010E9495
:10089000D821009731F58981882F90E0880F991F22
:1008A0009C01220F331F220F331F220F331F820F91
:1008B000931FFC01EF53FA4F208131818D819E817E
:1008C0002817390759F483E08A838F819885009728
:1008D00079F0EF81F885898180830AC084E08A837A
:1008E00007C089818F5F898389818A3008F4A8CF06
:1008F0008A8128960FB6F894DEBF0FBECDBFCF9188
:10090000DF910895DF93CF93CDB7DEB727970FB66A
:10091000F894DEBF0FBECDBF9D838C837F836E8333
:100920001B828C819D812E813F81B90140E050E086
:100930000E940C048A838A81823009F05EC0198289
:1009400058C08981882F90E0880F991F9C01220F41
:10095000331F220F331F220F331F820F931FFC01FF
:10096000ED53FA4F8081882309F040C08981882F98
:1009700090E0880F991F9C01220F331F220F331F15
:10098000220F331F820F931F8E549A4F2C813D816B
:10099000B9010E94E1218981882F90E0880F991F79
:1009A0009C01220F331F220F331F220F331F820F90
:1009B000931FFC01EF53FA4F8E819F8191838083B7
:1009C0008981882F90E0880F991F9C01220F331F87
:1009D000220F331F220F331F820F931FFC01ED5391
:1009E000FA4F81E0808381E08B8307C089818F5F2C
:1009F000898389818A3008F4A4CF8B8127960FB62A
:100A0000F894DEBF0FBECDBFCF91DF910895DF9385
:100A1000CF93CDB7DEB727970FB6F894DEBF0FBEE2
:100A2000CDBF9D838C837F836E8385E08A831B8209
:100A30008C819D812E813F81AE014D5F5F4FB90159
:100A40000E940C04898389818330E1F58B81882F92
:100A500090E0880F991F9C01220F331F220F331F34
:100A6000220F331F820F931F8E549A4F60E070E065
:100A70004FE050E00E94D1218B81882F90E0880FB9
:100A8000991F9C01220F331F220F331F220F331F88
:100A9000820F931FFC01EF53FA4F118210828B815A
:100AA000882F90E0880F991F9C01220F331F220F7F
:100AB000331F220F331F820F931FFC01ED53FA4F98
:100AC000108202C086E08A838A8127960FB6F89446
:100AD000DEBF0FBECDBFCF91DF910895DF93CF93DF
:100AE00000D00F92CDB7DEB79B838A838091A60595
:100AF0009091A70560E070E040E050E020E00E94A7
:100B00000E0F89838981813011F585E995E00E9476
:100B1000AA219C0186E895E0B90140E050E00E94DE
:100B20000C04833029F481E090E00E94021F04C08D
:100B300080E090E00E94021F80919C0590919D05AD
:100B400060E070E040E050E020E00E94230E8091E1
:100B5000AE059091AF0560E070E040E050E020E02D
:100B60000E940E0F89838981813001F585E995E026
:100B70000E94AA219C0186E895E0B9010E948204A6
:100B8000813029F481E090E00E94021F04C080E0DF
:100B900090E00E94021F80919C0590919D0560E06D
:100BA00070E040E050E020E00E94230E8091A80514
:100BB0009091A90560E070E040E050E020E00E94E4
:100BC0000E0F89838981813001F585E995E00E94C6
:100BD000AA219C0186E895E0B9010E9407058530AD
:100BE00029F481E090E00E94021F04C080E090E0C0
:100BF0000E94021F80919C0590919D0560E070E02D
:100C000040E050E020E00E94230E83E090E00E944C
:100C1000BF136CCFDF93CF93CDB7DEB727970FB657
:100C2000F894DEBF0FBECDBF9D838C836E834F8350
:100C30008AE190E00E94E2089A83898389819A81FF
:100C4000009709F46FC08091A2009091A3000097D3
:100C500041F489819A819093A3008093A2000E941D
:100C600071088E81823010F081E08E83E981FA81F3
:100C7000118E108EE981FA818E81868BE981FA814D
:100C80008F81878BE981FA818C819D81918380831B
:100C900089819A8102960E94780989819A810C96AD
:100CA0000E947809E981FA8189819A8191878087F8
:100CB000E981FA8189819A81938B828B8E81282F99
:100CC00030E084E090E0821B930BE981FA81958704
:100CD0008487E981FA8196898091A400891728F494
:100CE000E981FA8186898093A400E981FA81868965
:100CF000282F30E0C901880F991F880F991F880F8E
:100D0000991F820F931FAC0145555F4F89819A81CE
:100D10009C012E5F3F4FCA01B9010E94880981E002
:100D20008B8302C08FEF8B838B8127960FB6F8944D
:100D3000DEBF0FBECDBFCF91DF910895DF93CF937C
:100D400000D000D000D0CDB7DEB79C838B837E83EC
:100D50006D832091A5003091A6008B819C81820F2C
:100D6000931F9A8389838091A2009091A300029699
:100D70000E94400AE091A200F091A30089819A812B
:100D8000938382832091A5003091A60089819A8166
:100D90008217930770F48091D1009091D200209136
:100DA000A2003091A3002E5F3F4FB9010E94D409E9
:100DB0000DC08091CF009091D0002091A200309181
:100DC000A3002E5F3F4FB9010E94D4098D819E81FF
:100DD000009761F08091A2009091A3009C01245F94
:100DE0003F4F8D819E81B9010E94D40926960FB68E
:100DF000F894DEBF0FBECDBFCF91DF910895DF9392
:100E0000CF9300D0CDB7DEB73AC0F894E091D800C8
:100E1000F091D900868197819A83898389819A810B
:100E20000C960E94400A789489819A8102960E94C9
:100E3000400AE981FA8196898091A400891728F4F3
:100E4000E981FA8186898093A400E981FA81868903
:100E5000282F30E0C901880F991F880F991F880F2C
:100E6000991F820F931FAC0145555F4F89819A816D
:100E70009C012E5F3F4FCA01B9010E9488098091F1
:100E8000D300882309F0C1CF0F900F90CF91DF914D
:100E90000895DF93CF9300D000D0CDB7DEB70E9486
:100EA000CD142091A7003091A800821B930B909342
:100EB000AA008093A90085C08091A5009091A6000A
:100EC00001969093A6008093A5008091A90090912F
:100ED000AA0001979093AA008093A9008091A50091
:100EE0009091A600009709F064C08091CF00909186
:100EF000D0009A8389838091D1009091D200909301
:100F0000D0008093CF0089819A819093D200809302
:100F1000D1004FC0E091CF00F091D0000580F68164
:100F2000E02D868197819C838B83EB81FC812281DC
:100F300033818091A5009091A6008217930708F451
:100F400040C0F8948B819C8102960E94400AEB81FC
:100F5000FC8184899589009729F08B819C810C966E
:100F60000E94400A7894EB81FC8196898091A400CC
:100F7000891728F4EB81FC8186898093A400EB819A
:100F8000FC818689282F30E0C901880F991F880FBE
:100F9000991F880F991F820F931FAC0145555F4F12
:100FA0008B819C819C012E5F3F4FCA01B9010E9439
:100FB0008809E091CF00F091D0008081882309F06A
:100FC000A9CF8091A9009091AA00009709F074CF51
:100FD0008091A5009091A6009093A8008093A7000F
:100FE0000F900F900F900F90CF91DF910895DF93A6
:100FF000CF9300D0CDB7DEB70E94FF060E9449070D
:101000000AC08091A400882309F466C08091A400DE
:1010100081508093A4008091A400282F30E0C90162
:10102000880F991F880F991F880F991F820F931F90
:10103000FC01E555FF4F8081882319F38091A400BE
:10104000282F30E0C901880F991F880F991F880F3A
:10105000991F820F931F85559F4F9A838983E9813A
:10106000FA810180F281E02D82819381E981FA8108
:1010700092838183E981FA812181328189819A81F8
:1010800003962817390759F4E981FA810180F28122
:10109000E02D82819381E981FA8192838183E981C4
:1010A000FA810180F281E02D868197819093A300DF
:1010B0008093A200E091A200F091A30040815181B1
:1010C0008091A2009091A300E091A200F091A30072
:1010D0002789622FFA0109950F900F90CF91DF9128
:1010E0000895DF93CF930F92CDB7DEB7198213C067
:1010F0008981282F30E0C901880F991F880F991F17
:10110000880F991F820F931F85559F4F0E944E098C
:1011100089818F5F89838981823050F38DEB90E0E4
:101120000E944E0986EC90E00E944E0983ED90E00B
:101130000E944E098DEB90E09093D0008093CF00F9
:1011400086EC90E09093D2008093D1000F90CF91E5
:10115000DF910895DF93CF9300D000D00F92CDB7E9
:10116000DEB79D838C83EC81FD810580F681E02DC7
:10117000868197819B838A838A819B810C960E94BA
:10118000400A8A819B819C01245F3F4F83ED90E060
:10119000B9010E948809EA81FB819689E091A20049
:1011A000F091A3008689981718F081E0898301C027
:1011B000198289810F900F900F900F900F90CF910F
:1011C000DF910895DF93CF9300D000D0CDB7DEB785
:1011D0009C838B831A8219820E9437148091DC00D1
:1011E0009091DD002B813C81820F931F24E08C3491
:1011F000920718F52091DC003091DD008B819C81F5
:10120000280F391F8091DC009091DD008217930731
:10121000A0F48091DC009091DD0082529F4F9A8370
:1012200089832091DC003091DD008B819C81820FCD
:10123000931F9093DD008093DC000E94431489810A
:101240009A810F900F900F900F90CF91DF9108959A
:10125000DF93CF9300D0CDB7DEB79A8389830F9009
:101260000F90CF91DF910895DF93CF93CDB7DEB785
:101270001092DD001092DC00CF91DF910895DF9392
:10128000CF93CDB7DEB72091DC003091DD008CE448
:1012900094E0821B930BCF91DF910895DF93CF935E
:1012A00000D0CDB7DEB79A83898389819A8103966E
:1012B000E981FA8192838183E981FA818FEF9FEF3F
:1012C0009483838389819A810396E981FA81968345
:1012D000858389819A810396E981FA819087878342
:1012E000E981FA8110820F900F90CF91DF910895DC
:1012F000DF93CF9300D0CDB7DEB79A838983E9819E
:10130000FA81118610860F900F90CF91DF9108958A
:10131000DF93CF9300D000D000D0CDB7DEB79C8351
:101320008B837E836D83EB81FC81818192819A83A3
:101330008983E981FA8182819381ED81FE819383A2
:101340008283EB81FC8181819281ED81FE81958395
:101350008483E981FA810280F381E02D8D819E8171
:10136000958384838D819E81E981FA819383828331
:101370008D819E81EB81FC8192838183ED81FE8151
:101380008B819C8191878087EB81FC8180818F5F3D
:10139000EB81FC81808326960FB6F894DEBF0FBEEA
:1013A000CDBFCF91DF910895DF93CF93CDB7DEB757
:1013B00028970FB6F894DEBF0FBECDBF9E838D83F6
:1013C00078876F83EF81F885808191819A83898303
:1013D00089819A812FEF8F3F920739F4ED81FE8149
:1013E000878190859C838B8318C08D819E81039615
:1013F0009C838B8306C0EB81FC81828193819C83DB
:101400008B83EB81FC810280F381E02D208131818F
:1014100089819A818217930770F7EB81FC81828121
:101420009381EF81F88593838283EF81F885028031
:10143000F381E02D8F81988595838483EF81F885F2
:101440008B819C81958384838F819885EB81FC813E
:1014500093838283EF81F8858D819E819187808738
:10146000ED81FE8180818F5FED81FE8180832896F2
:101470000FB6F894DEBF0FBECDBFCF91DF910895B8
:10148000DF93CF9300D000D0CDB7DEB79C838B83A2
:10149000EB81FC81A281B381EB81FC818481958108
:1014A00015969C938E931497EB81FC81A481B58152
:1014B000EB81FC818281938113969C938E9312978A
:1014C000EB81FC81808591859A838983E981FA810A
:1014D000218132818B819C812817390741F4EB816E
:1014E000FC8184819581E981FA8192838183EB81FA
:1014F000FC8111861086E981FA8180818150E98121
:10150000FA8180830F900F900F900F90CF91DF9111
:101510000895DF93CF93CDB7DEB728970FB6F89431
:10152000DEBF0FBECDBF9C838B837E836D835887C8
:101530004F83EB81FC8181E180838B819C810197CA
:101540009C838B83EB81FC8182E280838B819C81F5
:1015500001979C838B83EB81FC8183E380838B8168
:101560009C8101979C838B838D819E819A83898343
:101570008981EB81FC8180838B819C8101979C8395
:101580008B8389819A81892F99279A83898389817D
:10159000EB81FC8180838B819C8101979C838B8371
:1015A000EB81FC8110828B819C8101979C838B83D2
:1015B000EB81FC8180E880838B819C8101979C83F7
:1015C0008B83EB81FC8110828B819C8101979C83B2
:1015D0008B83EB81FC8182E080838B819C810197EE
:1015E0009C838B83EB81FC8183E080838B819C8156
:1015F00001979C838B83EB81FC8184E080838B81CA
:101600009C8101979C838B83EB81FC8185E08083A7
:101610008B819C8101979C838B83EB81FC8186E08D
:1016200080838B819C8101979C838B83EB81FC81E0
:1016300087E080838B819C8101979C838B83EB81E6
:10164000FC8188E080838B819C8101979C838B83C4
:10165000EB81FC8189E080838B819C8101979C8355
:101660008B83EB81FC8180E180838B819C8101975E
:101670009C838B83EB81FC8181E180838B819C81C6
:1016800001979C838B83EB81FC8182E180838B813A
:101690009C8101979C838B83EB81FC8183E1808318
:1016A0008B819C8101979C838B83EB81FC8184E1FE
:1016B00080838B819C8101979C838B83EB81FC8150
:1016C00085E180838B819C8101979C838B83EB8157
:1016D000FC8186E180838B819C8101979C838B8335
:1016E000EB81FC8187E180838B819C8101979C83C6
:1016F0008B83EB81FC8188E180838B819C810197C6
:101700009C838B83EB81FC8189E180838B819C812D
:1017100001979C838B83EB81FC8180E280838B81AA
:101720009C8101979C838B83EB81FC8181E2808388
:101730008B819C8101979C838B83EB81FC8182E26E
:1017400080838B819C8101979C838B83EB81FC81BF
:1017500083E280838B819C8101979C838B838F8123
:1017600098859A8389838981EB81FC8180838B8131
:101770009C8101979C838B8389819A81892F9927EA
:101780009A8389838981EB81FC8180838B819C8111
:1017900001979C838B83EB81FC8186E280838B8124
:1017A0009C8101979C838B83EB81FC8187E2808302
:1017B0008B819C8101979C838B83EB81FC8188E2E8
:1017C00080838B819C8101979C838B83EB81FC813F
:1017D00089E280838B819C8101979C838B83EB8141
:1017E000FC8180E380838B819C8101979C838B8328
:1017F000EB81FC8181E380838B819C8101979C83B9
:101800008B838B819C8128960FB6F894DEBF0FBE28
:10181000CDBFCF91DF910895DF93CF93CDB7DEB7E2
:101820000E94FC0CA0912A05B0912B05CD91CDBF53
:10183000DD91DEBFFF91EF91DF91CF91BF91AF912D
:101840009F918F917F916F915F914F913F912F91D8
:101850001F910F91FF90EF90DF90CF90BF90AF90CE
:101860009F908F907F906F905F904F903F902F90C0
:101870001F900F900FBE0F90089581E0CF91DF91E0
:101880000895DF93CF93CDB7DEB7CF91DF91089561
:101890000F920FB6F8940F921F9211242F923F923D
:1018A0004F925F926F927F928F929F92AF92BF9270
:1018B000CF92DF92EF92FF920F931F932F933F935C
:1018C0004F935F936F937F938F939F93AF93BF9348
:1018D000CF93DF93EF93FF93A0912A05B0912B054F
:1018E0000DB60D920EB60D920E94D715A0912A0545
:1018F000B0912B05CD91CDBFDD91DEBFFF91EF9172
:10190000DF91CF91BF91AF919F918F917F916F9117
:101910005F914F913F912F911F910F91FF90EF9009
:10192000DF90CF90BF90AF909F908F907F906F90FF
:101930005F904F903F902F901F900F900FBE0F9091
:1019400008950F920FB6F8940F921F9211242F92C0
:101950003F924F925F926F927F928F929F92AF923F
:10196000BF92CF92DF92EF92FF920F931F932F932C
:101970003F934F935F936F937F938F939F93AF9317
:10198000BF93CF93DF93EF93FF93A0912A05B0917C
:101990002B050DB60D920EB60D920E9402150E94F7
:1019A000D715A0912A05B0912B05CD91CDBFDD9122
:1019B000DEBFFF91EF91DF91CF91BF91AF919F91EA
:1019C0008F917F916F915F914F913F912F911F91D7
:1019D0000F91FF90EF90DF90CF90BF90AF909F90CE
:1019E0008F907F906F905F904F903F902F901F90BF
:1019F0000F900FBE0F900895DF93CF9300D000D0CB
:101A000000D0CDB7DEB780E49FE1A0E0B0E08B83EB
:101A10009C83AD83BE838B819C81AD81BE816894A4
:101A200015F8B695A795979587951694D1F78B835A
:101A30009C83AD83BE838B819C81AD81BE810197E8
:101A4000A109B1098B839C83AD83BE838B8189837C
:101A50008B819C81AD81BE81892F9A2FAB2FBB27B3
:101A60008B839C83AD83BE838B818A83EBE4F0E020
:101A70008A818083EAE4F0E0898180838BE0898336
:101A8000EEE4F0E089818083E9E5F0E080818983FC
:101A9000898180618983E9E5F0E0898180832696E8
:101AA0000FB6F894DEBF0FBECDBFCF91DF91089582
:101AB0000E94A10C1895DF93CF93CDB7DEB728977E
:101AC0000FB6F894DEBF0FBECDBF8F8368871A8232
:101AD00019828F81882309F48CC08FE190E00E94E5
:101AE000E2089E838D838D819E81009709F481C0D9
:101AF0008F81282F30E08885882F90E0AC01249FCB
:101B0000C001259F900D349F900D112401969C8358
:101B10008B838B819C810E94E208ED81FE81918301
:101B20008083ED81FE8180819181009709F45DC001
:101B3000ED81FE81408151818F81282F30E08885A1
:101B4000882F90E0BC01269FC001279F900D369FF3
:101B5000900D1124840F951FED81FE819383828364
:101B6000ED81FE81128EED81FE8180819181ED817A
:101B7000FE8195838483ED81FE81408151818F8137
:101B8000882F90E09C01215030408885882F90E07C
:101B9000BC01269FC001279F900D369F900D1124F8
:101BA000840F951FED81FE8197838683ED81FE81F1
:101BB0008F81838FED81FE818885848FED81FE8109
:101BC0008FEF858FED81FE818FEF868F8D819E81D6
:101BD00008960E944E098D819E8141960E944E0971
:101BE0008D819E819A83898304C08D819E810E940C
:101BF000280989819A8128960FB6F894DEBF0FBE16
:101C0000CDBFCF91DF910895DF93CF9300D000D067
:101C1000CDB7DEB78B836C838B8160E00E945B0D58
:101C20009A83898389819A81009721F0E981FA81D9
:101C30008C81828F89819A810F900F900F900F90E5
:101C4000CF91DF910895DF93CF93CDB7DEB72C9777
:101C50000FB6F894DEBF0FBECDBF9E838D8378870D
:101C60006F835A8749872B8719820FB6F8940F9292
:101C7000ED81FE81928DED81FE81838D9817D8F4E0
:101C80008D819E812F813885B9014B850E945E1020
:101C9000ED81FE818189882349F08D819E81419665
:101CA0000E947316813011F40E94480C0F900FBEF1
:101CB00081E08C875CC089859A85009721F40F901C
:101CC0000FBE1C8654C08981882331F4CE01029650
:101CD0000E94DB1681E089830F900FBE0E943714AB
:101CE0000FB6F8940F92ED81FE81858D8F3F19F428
:101CF000ED81FE81158EED81FE81868D8F3F19F479
:101D0000ED81FE81168E0F900FBECE0102969E01D0
:101D1000275F3F4FB9010E94F416882309F58D8192
:101D20009E810E94C2118823A1F08D819E81089618
:101D300029853A85B9010E943D168D819E810E94B8
:101D40003B110E944314882309F08FCF0E94480C56
:101D50008CCF8D819E810E943B110E94431485CFC0
:101D60008D819E810E943B110E9443141C868C85AC
:101D70002C960FB6F894DEBF0FBECDBFCF91DF918A
:101D80000895DF93CF93CDB7DEB729970FB6F894B8
:101D9000DEBF0FBECDBF9C838B837E836D83588750
:101DA0004F8329871982EB81FC81928DEB81FC8125
:101DB000838D981740F58B819C812D813E81B901DF
:101DC00049850E945E10EB81FC81868D8F3F89F4EE
:101DD000EB81FC818189882399F08B819C814196DC
:101DE0000E947316882361F0EF81F88581E080837B
:101DF00007C0EB81FC81868D8F5FEB81FC81868F34
:101E000081E08A8301C01A828A8129960FB6F894EC
:101E1000DEBF0FBECDBFCF91DF910895DF93CF938B
:101E2000CDB7DEB72E970FB6F894DEBF0FBECDBF8D
:101E300098878F837A8769875C874B872D871B827A
:101E40000FB6F8940F92EF81F885828D882309F4FC
:101E50003FC0EF81F885868197819A8389838F813E
:101E6000988529853A85B9010E94F3108D858823CC
:101E7000B1F4EF81F885828D8150EF81F885828FF2
:101E8000EF81F88580858823F1F08F819885089609
:101E90000E9473168130B9F40E94480C14C0EF817F
:101EA000F88589819A8197838683EF81F885818976
:101EB000882349F08F81988541960E947316882364
:101EC00011F00E94480C0F900FBE81E08E875CC01D
:101ED0008B859C85009721F40F900FBE1E8654C001
:101EE0008B81882331F4CE0104960E94DB1681E0B9
:101EF0008B830F900FBE0E9437140FB6F8940F9289
:101F0000EF81F885858D8F3F19F4EF81F885158E67
:101F1000EF81F885868D8F3F19F4EF81F885168E55
:101F20000F900FBECE0104969E01255F3F4FB90171
:101F30000E94F416882309F58F8198850E948F11DD
:101F40008823A1F08F81988541962B853C85B90126
:101F50000E943D168F8198850E943B110E94431478
:101F6000882309F06DCF0E94480C6ACF8F81988535
:101F70000E943B110E94431463CF8F8198850E9479
:101F80003B110E9443141E868E852E960FB6F89440
:101F9000DEBF0FBECDBFCF91DF910895DF93CF930A
:101FA000CDB7DEB728970FB6F894DEBF0FBECDBF12
:101FB0009C838B837E836D8358874F831982EB814B
:101FC000FC81828D882371F18B819C812D813E81E2
:101FD000B9010E94F310EB81FC81828D8150EB816D
:101FE000FC81828FEB81FC81858D8F3F89F4EB81B1
:101FF000FC818085882399F08B819C8108960E94C2
:102000007316882361F0EF81F88581E0808307C033
:10201000EB81FC81858D8F5FEB81FC81858F81E079
:102020008A8301C01A828A8128960FB6F894DEBF8F
:102030000FBECDBFCF91DF910895DF93CF9300D036
:102040000F92CDB7DEB79B838A830FB6F8940F92B9
:10205000EA81FB81828D89830F900FBE89810F9069
:102060000F900F90CF91DF910895DF93CF9300D021
:102070000F92CDB7DEB79B838A83EA81FB81828D85
:10208000898389810F900F900F90CF91DF910895F0
:10209000DF93CF9300D0CDB7DEB79A838983E981F0
:1020A000FA81808191810E94280989819A810E9408
:1020B00028090F900F90CF91DF910895DF93CF9370
:1020C00000D000D00F92CDB7DEB79A8389837C838E
:1020D0006B834D83E981FA81848D882309F474C070
:1020E0008D81882399F5E981FA8164817581E9817F
:1020F000FA81848D482F50E02B813C81CB01B901BE
:102100000E94C821E981FA8124813581E981FA811F
:10211000848D882F90E0820F931FE981FA81958347
:102120008483E981FA8124813581E981FA81828180
:1021300093812817390708F447C0E981FA81808123
:102140009181E981FA81958384833EC0E981FA8196
:1021500066817781E981FA81848D482F50E02B8157
:102160003C81CB01B9010E94C821E981FA81268115
:102170003781E981FA81848D882F90E0909581954F
:102180009F4F820F931FE981FA8197838683E981AC
:10219000FA8126813781E981FA818081918128172E
:1021A000390790F4E981FA8122813381E981FA814A
:1021B000848D882F90E0909581959F4F820F931F7B
:1021C000E981FA8197838683E981FA81828D8F5F25
:1021D000E981FA81828F0F900F900F900F900F90EE
:1021E000CF91DF910895DF93CF9300D000D0CDB78A
:1021F000DEB79A8389837C836B83E981FA8180814E
:102200009181009789F1E981FA8126813781E981FD
:10221000FA81848D882F90E0820F931FE981FA81E3
:1022200097838683E981FA8126813781E981FA8162
:10223000828193812817390740F0E981FA818081F2
:102240009181E981FA8197838683E981FA814681C8
:102250005781E981FA81848D282F30E08B819C8120
:10226000BA01A9010E94C8210F900F900F900F9002
:10227000CF91DF910895DF93CF9300D0CDB7DEB734
:102280009A8389830FB6F8940F9215C0E981FA8179
:1022900081898823A9F089819A8141960E947316C9
:1022A000882311F00E945117E981FA81868D8150AF
:1022B000E981FA81868FE981FA81868D181634F3D7
:1022C000E981FA818FEF868F0F900FBE0FB6F894D9
:1022D0000F9215C0E981FA8180858823A9F0898150
:1022E0009A8108960E947316882311F00E94511754
:1022F000E981FA81858D8150E981FA81858FE981B3
:10230000FA81858D181634F3E981FA818FEF858F74
:102310000F900FBE0F900F90CF91DF910895DF9334
:10232000CF9300D00F92CDB7DEB79B838A830FB6D1
:10233000F8940F92EA81FB81828D1982882311F42F
:1023400081E089830F900FBE89810F900F900F90CD
:10235000CF91DF910895DF93CF9300D00F92CDB747
:10236000DEB79B838A83EA81FB81828D1982882371
:1023700011F481E0898389810F900F900F90CF91A4
:10238000DF910895DF93CF9300D00F92CDB7DEB7E2
:102390009B838A830FB6F8940F92EA81FB81928D1A
:1023A000EA81FB81838D1982981711F481E089837A
:1023B0000F900FBE89810F900F900F90CF91DF91FA
:1023C0000895DF93CF9300D00F92CDB7DEB79B83F4
:1023D0008A83EA81FB81928DEA81FB81838D198258
:1023E000981711F481E0898389810F900F900F90E5
:1023F000CF91DF910895AF92BF92CF92DF92EF928B
:10240000FF920F931F93DF93CF93CDB7DEB76497FF
:102410000FB6F894DEBF0FBECDBF9F838E83798742
:1024200068875B874A873D872C870E87F88AEF8607
:10243000DA8AC98ABC8AAB8A8A859B8529893A89C6
:10244000B9010E9480189C838B838B819C810097AB
:1024500009F499C0EB81FC812789308D8A859B85A1
:102460000197820F931F9A8389838B819C81288592
:102470003985EB89FC89AA85BB85B9014E859F0109
:102480008D010E94651789819A812E813F814C853B
:102490005D85B9010E94890AEB81FC81918380836B
:1024A0008F859889009731F0EF85F8898B819C8121
:1024B000918380830FB6F8940F9280912D058F5FE2
:1024C00080932D0580912A0590912B05009769F442
:1024D0008B819C8190932B0580932A0580912D05FB
:1024E0008130A9F40E94BC1712C080913205882364
:1024F00071F4E0912A05F0912B0596898E85891754
:1025000030F08B819C8190932B0580932A05EB8181
:10251000FC81968980913005891728F4EB81FC8134
:10252000868980933005809137058F5F80933705CA
:10253000EB81FC81968980913105891728F4EB8124
:10254000FC81868980933105EB81FC818689282F67
:1025500030E0C901880F991F880F991F880F991FB4
:10256000820F931FAC01485C5A4F8B819C819C0168
:102570002E5F3F4FCA01B9010E94880981E08D8317
:102580000F900FBE02C08FEF8D838D81813071F46B
:1025900080913205882351F0E0912A05F0912B05B6
:1025A00096898E85981710F40E94480C8D81649648
:1025B0000FB6F894DEBF0FBECDBFCF91DF911F9154
:1025C0000F91FF90EF90DF90CF90BF90AF90089564
:1025D000DF93CF9300D000D000D0CDB7DEB79C837F
:1025E0008B830FB6F8940F9220912A0530912B051A
:1025F0008B819C818217930711F41C821B828B8133
:102600009C81009739F480912A0590912B059E8337
:102610008D8304C08B819C819E838D838D819E815F
:102620009A83898389819A8102960E94400AE9816E
:10263000FA8184899589009729F089819A810C967D
:102640000E94400A89819A819C012E5F3F4F8BE74F
:1026500095E0B9010E94880980912C058F5F8093D5
:102660002C05809137058F5F809337050F900FBE43
:1026700080913205882331F08B819C81009711F481
:102680000E94480C26960FB6F894DEBF0FBECDBF51
:10269000CF91DF910895DF93CF93CDB7DEB7289721
:1026A0000FB6F894DEBF0FBECDBF9E838D837887B3
:1026B0006F8319820E943714ED81FE812081318160
:1026C0008F819885820F931F9C838B83ED81FE8180
:1026D0002081318180912E0590912F0582179307DB
:1026E000A8F4ED81FE81208131818B819C8182174C
:1026F000930700F520912E0530912F058B819C8149
:1027000028173907B8F481E0898314C0ED81FE8170
:10271000208131818B819C818217930748F0209121
:102720002E0530912F058B819C812817390710F4D5
:1027300081E08983ED81FE818B819C8191838083FF
:102740008981882359F080912A0590912B05029662
:102750000E94400A8B819C810E9437180E9443147A
:102760008A838A81882311F40E94480C28960FB628
:10277000F894DEBF0FBECDBFCF91DF910895DF93F8
:10278000CF9300D000D00F92CDB7DEB79D838C835E
:1027900019828C819D810097D1F00E94371420917D
:1027A0002E0530912F058C819D81820F931F9B8375
:1027B0008A8380912A0590912B0502960E94400AF7
:1027C0008A819B810E9437180E94431489838981E2
:1027D000882311F40E94480C0F900F900F900F90D7
:1027E0000F90CF91DF910895AF92BF92CF92DF9279
:1027F000EF92FF920F93DF93CF930F92CDB7DEB797
:1028000020E630E08BE597E1B90145E550E020E0B6
:1028100030E000E0EE24FF24CC24DD24AA24BB24F5
:102820000E94FB1189838981813051F4F89481E001
:102830008093320510922F0510922E050E940C0CE9
:102840000F90CF91DF910F91FF90EF90DF90CF909D
:10285000BF90AF900895DF93CF93CDB7DEB7F894D4
:10286000109232050E94410CCF91DF910895DF93C1
:10287000CF93CDB7DEB7809133058F5F809333055B
:10288000CF91DF910895DF93CF9300D000D0CDB7E3
:10289000DEB71A820FB6F8940F92809133058150FB
:1028A0008093330580913305882309F06CC08091B3
:1028B0002D05882309F467C0198241C0E09177058E
:1028C000F0917805868197819C838B838B819C8195
:1028D0000C960E94400A8B819C8102960E94400ABD
:1028E000EB81FC81968980913105891728F4EB8171
:1028F000FC81868980933105EB81FC818689282FB4
:1029000030E0C901880F991F880F991F880F991F00
:10291000820F931F885C9A4F2B813C812E5F3F4F23
:10292000B9010E948809EB81FC819689E0912A0512
:10293000F0912B058689981710F081E089838091AA
:102940007205882309F0BACF80913405882371F08D
:1029500007C00E9402158091340581508093340590
:10296000809134058823A9F781E0898389818130AA
:1029700021F080913505813031F481E08A83109215
:1029800035050E94480C0F900FBE8A810F900F9062
:102990000F900F90CF91DF910895DF93CF9300D0E8
:1029A000CDB7DEB70FB6F8940F9280912E059091B7
:1029B0002F059A8389830F900FBE89819A810F908A
:1029C0000F90CF91DF910895DF93CF9300D00F92B6
:1029D000CDB7DEB7198280912E0590912F059B838C
:1029E0008A838A819B810F900F900F90CF91DF9106
:1029F0000895DF93CF93CDB7DEB780912D05CF91AA
:102A0000DF910895DF93CF9300D000D000D0CDB7F1
:102A1000DEB780913305882309F0BBC080912E0575
:102A200090912F05019690932F0580932E0580910C
:102A30002E0590912F050097D1F580916E0590910C
:102A40006F059C838B8380917005909171059093A5
:102A50006F0580936E058B819C81909371058093A7
:102A60007005809136058F5F80933605E0916E0585
:102A7000F0916F058081882339F48FEF9FEF909359
:102A80006E0080936D0013C0E0916E05F0916F05AC
:102A90000580F681E02D868197819E838D83ED816F
:102AA000FE818281938190936E0080936D002091CE
:102AB0002E0530912F0580916D0090916E002817A2
:102AC000390708F46BC0E0916E05F0916F058081C5
:102AD000882339F48FEF9FEF90936E0080936D0001
:102AE0005DC0E0916E05F0916F050580F681E02DE7
:102AF000868197819E838D83ED81FE818281938182
:102B00009A83898320912E0530912F0589819A819E
:102B10002817390738F489819A8190936E00809341
:102B20006D003CC08D819E8102960E94400AED811D
:102B3000FE8184899589009729F08D819E810C966C
:102B40000E94400AED81FE819689809131058917A6
:102B500028F4ED81FE81868980933105ED81FE8127
:102B60008689282F30E0C901880F991F880F991F87
:102B7000880F991F820F931FAC01485C5A4F8D81BB
:102B80009E819C012E5F3F4FCA01B9010E948809B6
:102B90009ACF809134058F5F8093340526960FB6C7
:102BA000F894DEBF0FBECDBFCF91DF910895DF93C4
:102BB000CF9300D0CDB7DEB780913305882349F09D
:102BC00081E08093350554C0809131058150809318
:102BD000310580913105282F30E0C901880F991FF8
:102BE000880F991F880F991F820F931FFC01E85CC3
:102BF000FA4F8081882341F380913105282F30E0FE
:102C0000C901880F991F880F991F880F991F820F7C
:102C1000931F885C9A4F9A838983E981FA810180A6
:102C2000F281E02D82819381E981FA81928381830F
:102C3000E981FA812181328189819A81039628175D
:102C4000390759F4E981FA810180F281E02D82810E
:102C50009381E981FA8192838183E981FA810180FC
:102C6000F281E02D8681978190932B0580932A0530
:102C70000F900F90CF91DF910895DF93CF9300D005
:102C800000D000D0CDB7DEB79C838B837E836D836D
:102C90004B815C8180912A0590912B059C01245FDA
:102CA0003F4FCA01B9010E94D40980912A05909131
:102CB0002B0502960E94400A20912E0530912F0587
:102CC0008D819E81820F931F9A83898389819A8146
:102CD0000E94371826960FB6F894DEBF0FBECDBF00
:102CE000CF91DF910895DF93CF9300D000D00F9262
:102CF000CDB7DEB79D838C83EC81FD810580F681A5
:102D0000E02D868197819B838A838A819B810C96A3
:102D10000E94400A80913305882361F58A819B8156
:102D200002960E94400AEA81FB81968980913105D2
:102D3000891728F4EA81FB81868980933105EA812D
:102D4000FB818689282F30E0C901880F991F880FE1
:102D5000991F880F991F820F931FAC01485C5A4F2F
:102D60008A819B819C012E5F3F4FCA01B9010E945D
:102D700088090AC08A819B819C01245F3F4F82E7BA
:102D800095E0B9010E948809EA81FB819689E0916A
:102D90002A05F0912B058689981718F081E0898320
:102DA00001C0198289810F900F900F900F900F90A2
:102DB000CF91DF910895DF93CF9300D0CDB7DEB7E9
:102DC0009A83898380913605E981FA818083809195
:102DD0002E0590912F05E981FA81928381830F90CE
:102DE0000F90CF91DF910895DF93CF9300D000D063
:102DF0000F92CDB7DEB79B838A837D836C830FB63A
:102E0000F8940F92EA81FB819081809136059817A2
:102E100071F0EA81FB812181328180912E059091B0
:102E20002F058217930718F081E089832FC0209126
:102E30002E0530912F05EA81FB8181819281281B2B
:102E4000390BEC81FD818081918128173907E0F4ED
:102E5000EC81FD8140815181EA81FB8121813281B8
:102E600080912E0590912F05B901681B790BCB013C
:102E7000840F951FEC81FD81918380838A819B81E2
:102E80000E94DB16198202C081E089830F900FBE79
:102E900089810F900F900F900F900F90CF91DF913D
:102EA0000895DF93CF93CDB7DEB781E080933505EA
:102EB000CF91DF910895DF93CF9300D0CDB7DEB7E8
:102EC0009A8389830E94F917FDCF0F931F93DF9395
:102ED000CF93CDB7DEB729970FB6F894DEBF0FBEFC
:102EE000CDBF9A8389837C836B834D833F832E83FD
:102EF0001987088789819A8149962B813C81B9017C
:102F000048E050E00E94E821E981FA8110A28D8119
:102F1000843010F083E08D83E981FA818D81868B86
:102F200089819A8102960E94780989819A810C96FA
:102F30000E947809E981FA8189819A819187808745
:102F40008D81282F30E084E090E0821B930BE98193
:102F5000FA8195878487E981FA8189819A81938BA7
:102F6000828B29960FB6F894DEBF0FBECDBFCF91EE
:102F7000DF911F910F910895DF93CF930F92CDB7FB
:102F8000DEB7198213C08981282F30E0C901880F6C
:102F9000991F880F991F880F991F820F931F885CB4
:102FA0009A4F0E944E0989818F5F8983898184307D
:102FB00050F38CE595E00E944E0985E695E00E946D
:102FC0004E0982E795E00E944E098BE795E00E944A
:102FD0004E098CE595E090936F0580936E0585E62C
:102FE00095E090937105809370050F90CF91DF91DC
:102FF0000895DF93CF9300D00F92CDB7DEB78091C5
:103000002C05882371F10E94371480917B051B8267
:10301000882311F481E08B830E9443148B818823E1
:1030200001F50FB6F8940F92E0918005F0918105BB
:10303000868197819A83898389819A8102960E94E9
:10304000400A80912D05815080932D0580912C059B
:10305000815080932C050F900FBE89819A810E9428
:10306000D0180F900F900F90CF91DF910895DF93BC
:10307000CF9300D0CDB7DEB79A838983E0912A053C
:10308000F0912B0589819A819383828320912E056B
:1030900030912F0589819A818217930770F480916E
:1030A00070059091710520912A0530912B052E5FB6
:1030B0003F4FB9010E94D4091EC040916E05509146
:1030C0006F0580912A0590912B059C012E5F3F4F43
:1030D000CA01B9010E94D40920916D0030916E009F
:1030E00089819A818217930730F489819A8190931C
:1030F0006E0080936D000F900F90CF91DF91089537
:10310000DF93CF93CDB7DEB728970FB6F894DEBF25
:103110000FBECDBF9C838B837E836D8381E290E065
:103120000E94E2089A83898389819A81009769F1D4
:103130008D819E81009739F48B819C810E94E208E9
:1031400098878F8304C08D819E8198878F83E981C2
:10315000FA818F819885908F878BE981FA818789A1
:10316000908D009739F489819A810E9428091A82EA
:1031700019820BC0E981FA818789908D2B813C816E
:1031800065EA70E0A9010E94D12189819A8128967F
:103190000FB6F894DEBF0FBECDBFCF91DF9108957B
:1031A000DF93CF9300D0CDB7DEB79A838983E981CF
:1031B000FA818789908D0E94280989819A810E94CD
:1031C00028090F900F90CF91DF910895DF93CF934F
:1031D00000D000D00F92CDB7DEB79B838A831982CF
:1031E0008A81843018F082E0898307C08A81843024
:1031F00010F4198202C081E089838B81813011F43F
:103200008FEF8B838981882391F58A81282F30E085
:103210003D832C838C819D8181309105D1F02C815F
:103220003D81223031052CF48C819D81009761F025
:103230001EC02C813D812230310581F08C819D8121
:103240008330910581F013C0EAE3F0E08B81808345
:103250000EC0E7E3F0E08B81808309C0E4E3F0E097
:103260008B81808304C0E1E3F0E08B8180838981DE
:103270000F900F900F900F900F90CF91DF910895C6
:10328000DF93CF93CDB7DEB72E970FB6F894DEBF9E
:103290000FBECDBF6A837B838C8319828A81843081
:1032A00018F082E089830DC08B81883018F083E0AC
:1032B000898307C08A81843010F4198202C081E0BA
:1032C00089838981882309F000C18A81282F30E011
:1032D0003E872D878D859E858130910509F44FC0ED
:1032E0002D853E85223031052CF48D859E850097F5
:1032F00071F0EBC02D853E852230310509F477C091
:103300008D859E858330910509F4A9C0DEC08C812E
:10331000282F30E03C872B878B859C850097D1F048
:103320002B853C852130310509F0CFC0AAE3B0E000
:10333000EAE3F0E08081482F8B81282F30E081E0A4
:1033400090E0022E02C0880F991F0A94E2F7842BA6
:103350008C93BBC0AAE3B0E0EAE3F0E08081482FA1
:103360008B81282F30E081E090E0022E02C0880F90
:10337000991F0A94E2F7809584238C93A6C08C81D0
:10338000282F30E03A87298789859A850097D1F0E0
:1033900029853A852130310509F097C0A7E3B0E0CF
:1033A000E7E3F0E08081482F8B81282F30E081E037
:1033B00090E0022E02C0880F991F0A94E2F7842B36
:1033C0008C9383C0A7E3B0E0E7E3F0E08081482F6F
:1033D0008B81282F30E081E090E0022E02C0880F20
:1033E000991F0A94E2F7809584238C936EC08C8198
:1033F000282F30E038872F838F8198850097D1F070
:103400002F8138852130310509F05FC0A4E3B0E099
:10341000E4E3F0E08081482F8B81282F30E081E0C9
:1034200090E0022E02C0880F991F0A94E2F7842BC5
:103430008C934BC0A4E3B0E0E4E3F0E08081482F3C
:103440008B81282F30E081E090E0022E02C0880FAF
:10345000991F0A94E2F7809584238C9336C08C815F
:10346000282F30E03E832D838D819E810097C9F007
:103470002D813E812130310541F5A1E3B0E0E1E34A
:10348000F0E08081482F8B81282F30E081E090E0B0
:10349000022E02C0880F991F0A94E2F7842B8C93A6
:1034A00014C0A1E3B0E0E1E3F0E08081482F8B811C
:1034B000282F30E081E090E0022E02C0880F991F93
:1034C0000A94E2F7809584238C9389812E960FB617
:1034D000F894DEBF0FBECDBFCF91DF910895DF938B
:1034E000CF9300D000D000D0CDB7DEB79B838A83C6
:1034F0006C8319828A81843018F082E0898307C046
:103500008A81843010F4198202C081E089838C8121
:10351000813011F48FEF8C838981882391F58A8122
:10352000282F30E03E832D838D819E81813091054F
:10353000D1F02D813E81223031052CF48D819E8188
:10354000009761F01EC02D813E812230310581F04F
:103550008D819E818330910581F013C0EBE3F0E013
:103560008C8180830EC0E8E3F0E08C81808309C009
:10357000E5E3F0E08C81808304C0E2E3F0E08C813D
:103580008083898126960FB6F894DEBF0FBECDBF2B
:10359000CF91DF910895DF93CF93CDB7DEB72F970B
:1035A0000FB6F894DEBF0FBECDBF6A837B838C83DA
:1035B0004D8319828A81843018F082E089830DC09E
:1035C0008B81883018F083E0898307C08A8184303A
:1035D00010F4198202C081E089838981882309F06F
:1035E00000C18A81282F30E03F872E878E859F85F6
:1035F0008130910509F44FC02E853F852230310579
:103600002CF48E859F85009771F0EBC02E853F8549
:103610002230310509F477C08E859F85833091056E
:1036200009F4A9C0DEC08D81282F30E03D872C87AA
:103630008C859D850097D1F02C853D852130310505
:1036400009F0CFC0ABE3B0E0EBE3F0E08081482FBE
:103650008B81282F30E081E090E0022E02C0880F9D
:10366000991F0A94E2F7842B8C93BBC0ABE3B0E0C4
:10367000EBE3F0E08081482F8B81282F30E081E060
:1036800090E0022E02C0880F991F0A94E2F78095FD
:1036900084238C93A6C08D81282F30E03B872A8716
:1036A0008A859B850097D1F02A853B85213031059D
:1036B00009F097C0A8E3B0E0E8E3F0E08081482F8C
:1036C0008B81282F30E081E090E0022E02C0880F2D
:1036D000991F0A94E2F7842B8C9383C0A8E3B0E08F
:1036E000E8E3F0E08081482F8B81282F30E081E0F3
:1036F00090E0022E02C0880F991F0A94E2F780958D
:1037000084238C936EC08D81282F30E039872887E1
:10371000888599850097D1F0288539852130310534
:1037200009F05FC0A5E3B0E0E5E3F0E08081482F59
:103730008B81282F30E081E090E0022E02C0880FBC
:10374000991F0A94E2F7842B8C934BC0A5E3B0E059
:10375000E5E3F0E08081482F8B81282F30E081E085
:1037600090E0022E02C0880F991F0A94E2F780951C
:1037700084238C9336C08D81282F30E03F832E83A5
:103780008E819F810097C9F02E813F8121303105C4
:1037900041F5A2E3B0E0E2E3F0E08081482F8B81C5
:1037A000282F30E081E090E0022E02C0880F991FA0
:1037B0000A94E2F7842B8C9314C0A2E3B0E0E2E316
:1037C000F0E08081482F8B81282F30E081E090E06D
:1037D000022E02C0880F991F0A94E2F78095842375
:1037E0008C9389812F960FB6F894DEBF0FBECDBFA4
:1037F000CF91DF910895DF93CF93CDB7DEB72797B1
:103800000FB6F894DEBF0FBECDBF9B838A837D8346
:103810006C8319828A81843018F082E0898307C022
:103820008A81843010F4198202C081E08983898101
:103830008823D1F58A81282F30E03F832E838E8123
:103840009F8181309105E1F02E813F812230310549
:103850002CF48E819F81009761F026C02E813F81DC
:1038600022303105A1F08E819F8183309105B1F026
:103870001BC0E9E3F0E08081EC81FD81808314C00E
:10388000E6E3F0E08081EC81FD8180830DC0E3E31D
:10389000F0E08081EC81FD81808306C0E0E3F0E010
:1038A0008081EC81FD818083898127960FB6F89411
:1038B000DEBF0FBECDBFCF91DF910895DF93CF93D1
:1038C000CDB7DEB728970FB6F894DEBF0FBECDBFD9
:1038D0006A837B838C835E834D8319828A818430E3
:1038E00018F082E089830DC08B81883018F083E066
:1038F000898307C08A81843010F4198202C081E074
:1039000089838981882309F070C08A81282F30E05B
:1039100038872F834F8158854130510559F18F8168
:1039200098858230910534F42F8138852115310531
:1039300069F05BC04F8158854230510579F18F8124
:1039400098858330910509F43DC04FC0E9E3F0E06C
:103950008081282F30E08B81882F90E0A90102C060
:10396000559547958A95E2F7CA018170ED81FE81F0
:1039700080833BC0E6E3F0E08081282F30E08B813C
:10398000882F90E0A90102C0559547958A95E2F7E6
:10399000CA018170ED81FE81808327C0E3E3F0E0FE
:1039A0008081282F30E08B81882F90E0A90102C010
:1039B000559547958A95E2F7CA018170ED81FE81A0
:1039C000808313C0E0E3F0E08081282F30E08B811A
:1039D000882F90E0A90102C0559547958A95E2F796
:1039E000CA018170ED81FE818083898128960FB69E
:1039F000F894DEBF0FBECDBFCF91DF910895DF9366
:103A0000CF93CDB7DEB7AFE5B0E0EFE5F0E0808172
:103A100080688C93CF91DF910895DF93CF93CDB7DA
:103A2000DEB7AFE5B0E0EFE5F0E080818F778C9313
:103A3000CF91DF910895DF93CF93CDB7DEB76A972B
:103A40000FB6F894DEBF0FBECDBF8FE690E09D8726
:103A50008C87FE017F96FF87EE87F3E1F88BEE857A
:103A6000FF8500808E859F8501969F878E87EC85D8
:103A7000FD8500828C859D8501969D878C87988920
:103A80009150988BE889EE2351F7CE0106969A8BD8
:103A9000898BE8E9F0E0FC8BEB8BF3E0FD8BEB89A5
:103AA000FC8900808B899C8901969C8B8B8BE98992
:103AB000FA89008289899A8901969A8B898B9D89D6
:103AC00091509D8BED89EE2351F76E817F81888522
:103AD0000E944019CE0109969F8B8E8BE5E9F0E09C
:103AE000F98FE88FF3E0FA8FE88DF98D0080888DEB
:103AF000998D0196998F888FEE89FF8900828E8932
:103B00009F8901969F8B8E8B9A8D91509A8FEA8D0B
:103B1000EE2351F769857A858B850E94401980E8EC
:103B20008D83909171008D81892B8D83909175008B
:103B30008D81892B8D83909176008D81892B8D834A
:103B400080917400843021F48D8186608D8305C05E
:103B5000809174009D81892B8D83909177008D8158
:103B6000892B8D83E0E4F0E08D8180831C8290912D
:103B70006F008C81892B8C8380917400843019F4C0
:103B80008C8184608C8380916F00803E19F48C81DD
:103B9000806E8C83EAE2F0E08C8180831B829091BE
:103BA00072008B81892B8B83909173008B81892B81
:103BB0008B83EBE2F0E08B81808380917100803415
:103BC000E1F48091780090917900A0917A00B09111
:103BD0007B009C01AD01220F331F441F551F80E065
:103BE00092E1AAE7B0E0BC01CD010E948821DA0190
:103BF000C90101979A8389834FC0809172008230F6
:103C000021F58091780090917900A0917A00B0918F
:103C10007B00880F991FAA1FBB1F880F991FAA1F1F
:103C2000BB1F880F991FAA1FBB1F9C01AD0180E01D
:103C300092E1AAE7B0E0BC01CD010E948821DA013F
:103C4000C90101979A83898327C080917800909158
:103C50007900A0917A00B0917B00880F991FAA1F6C
:103C6000BB1F880F991FAA1FBB1F880F991FAA1F70
:103C7000BB1F880F991FAA1FBB1F9C01AD0180E0CD
:103C800092E1AAE7B0E0BC01CD010E948821DA01EF
:103C9000C90101979A838983E0E4F0E089819A81E0
:103CA000892F99278083E9E2F0E0898180838091E0
:103CB0007000813041F4AAE2B0E0EAE2F0E08081F5
:103CC00088608C931EC080917000882341F4AAE222
:103CD000B0E0EAE2F0E0808180618C9312C08091D4
:103CE0007000823071F4AAE2B0E0EAE2F0E0808194
:103CF00088608C93AAE2B0E0EAE2F0E08081806123
:103D00008C936A960FB6F894DEBF0FBECDBFCF91ED
:103D1000DF910895DF93CF93CDB7DEB7EBE2F0E00C
:103D20008081881F8827881FCF91DF910895DF93B6
:103D3000CF9300D00F92CDB7DEB79B838A831982D1
:103D4000EBE2F0E080818823DCF78091740084301E
:103D5000F9F4EAE2F0E080818695882F90E08170A6
:103D60009070982F8827990FEA81FB819183808337
:103D7000EA81FB8120813181ECE2F0E08081882FB3
:103D800090E0822B932BEA81FB819183808306C094
:103D9000EA81FB81ACE2B0E08C918083EBE2F0E061
:103DA000808182958F70882F90E081709070882339
:103DB00019F085E089830EC0EBE2F0E08081869502
:103DC00086958695882F90E081709070882311F0F9
:103DD00086E0898380917500882369F0EBE2F0E04A
:103DE000808186958695882F90E0817090708823D9
:103DF00011F087E0898389810F900F900F90CF9108
:103E0000DF910895DF93CF9300D000D0CDB7DEB718
:103E10009A838983EBE2F0E08081829586958770B2
:103E2000882F90E0817090700097A1F380917400CA
:103E3000843041F589819A81892F992786959C0143
:103E4000217030703C832B838B819C81009731F0F3
:103E50002B813C812130310549F00FC0AAE2B0E04E
:103E6000EAE2F0E080818E7F8C9307C0AAE2B0E0A6
:103E7000EAE2F0E0808181608C93ECE2F0E08981FD
:103E8000808304C0ECE2F0E089818083EBE2F0E023
:103E900080818295869586958370882F90E08170C9
:103EA0009070009799F30F900F900F900F90CF9113
:103EB000DF910895DF93CF9300D00F92CDB7DEB797
:103EC0009B838A8319822A813B818981882F90E094
:103ED000F901E80FF91F8081882F90E00E94021FEE
:103EE00010C089818F5F89832A813B818981882FD6
:103EF00090E0F901E80FF91F8081882F90E00E947F
:103F0000021F2A813B818981882F90E0F901E80F07
:103F1000F91F8081882329F70F900F900F90CF9180
:103F2000DF910895DF93CF9300D00F92CDB7DEB726
:103F30009B838A8319822A813B818981882F90E023
:103F4000820F931F0E94971E0CC089818F5F898307
:103F50002A813B818981882F90E0820F931F0E94E4
:103F6000971E8981282F30E08A819B81FC01E20F16
:103F7000F31F8081833249F78981282F30E08A81BD
:103F80009B81FC01E20FF31F10820F900F900F90A6
:103F9000CF91DF9108951F920F920FB60F921124C7
:103FA0002F933F934F935F936F937F938F939F9341
:103FB000AF93BF93EF93FF93DF93CF93CDB7DEB76C
:103FC00080917C0090917D00009729F0E0917C0029
:103FD000F0917D000995CF91DF91FF91EF91BF9115
:103FE000AF919F918F917F916F915F914F913F9191
:103FF0002F910F900FBE0F901F9018951F920F9248
:104000000FB60F9211242F933F934F935F936F93AB
:104010007F938F939F93AF93BF93EF93FF93DF9320
:10402000CF93CDB7DEB7809180009091810000974B
:1040300029F0E0918000F09181000995CF91DF9106
:10404000FF91EF91BF91AF919F918F917F916F9170
:104050005F914F913F912F910F900FBE0F901F9046
:1040600018951F920F920FB60F9211242F933F9322
:104070004F935F936F937F938F939F93AF93BF9370
:10408000EF93FF93DF93CF93CDB7DEB780917E00A0
:1040900090917F00009729F0E0917E00F0917F00E1
:1040A0000995CF91DF91FF91EF91BF91AF919F91D2
:1040B0008F917F916F915F914F913F912F910F90D1
:1040C0000FBE0F901F901895DF93CF9300D000D0B4
:1040D00000D0CDB7DEB79E838D838D818A838E819C
:1040E0008B8381E08C836A817B818C810E94401963
:1040F0008983898126960FB6F894DEBF0FBECDBFA7
:10410000CF91DF910895DF93CF93CDB7DEB7279797
:104110000FB6F894DEBF0FBECDBF9F838E838E8116
:104120008B838F818C831A826B817C818D8141E0AE
:104130000E94CB1A89838981882311F084E08A83C5
:104140008A8127960FB6F894DEBF0FBECDBFCF9100
:10415000DF910895DF93CF93CDB7DEB727970FB6E2
:10416000F894DEBF0FBECDBF9F838E838E818B837D
:104170008F818C831A826B817C818D8140E00E94CB
:10418000CB1A89838981882311F084E08A838A810C
:1041900027960FB6F894DEBF0FBECDBFCF91DF914B
:1041A0000895DF93CF93CDB7DEB72A970FB6F89473
:1041B000DEBF0FBECDBF98878F838F818B838885AD
:1041C0008C831A829E012A5F3F4F6B817C818D8197
:1041D000A9010E945E1C898389818823E9F48E816C
:1041E000282F30E03A87298789859A85009769F0DA
:1041F00029853A852130310579F46B817C818D8167
:1042000040E00E94CB1A898307C06B817C818D813D
:1042100041E00E94CB1A89838981882311F084E0D0
:104220008A838A812A960FB6F894DEBF0FBECDBF6F
:10423000CF91DF910895DF93CF9300D000D000D0CD
:10424000CDB7DEB79E838D838D818A838E818B83EC
:1042500081E08C836A817B818C810E9440198983F3
:10426000898126960FB6F894DEBF0FBECDBFCF91E1
:10427000DF910895DF93CF93CDB7DEB727970FB6C1
:10428000F894DEBF0FBECDBF9F838E838E818B835C
:104290008F818C831A826B817C818D8141E00E94A9
:1042A000CB1A89838981882311F088E08A838A81E7
:1042B00027960FB6F894DEBF0FBECDBFCF91DF912A
:1042C0000895DF93CF93CDB7DEB727970FB6F89455
:1042D000DEBF0FBECDBF9F838E838E818B838F8188
:1042E0008C831A826B817C818D8140E00E94CB1A85
:1042F00089838981882311F088E08A838A812796BF
:104300000FB6F894DEBF0FBECDBFCF91DF910895F9
:10431000A1E21A2EAA1BBB1BFD010DC0AA1FBB1FC9
:10432000EE1FFF1FA217B307E407F50720F0A21B3B
:10433000B30BE40BF50B661F771F881F991F1A94A8
:1043400069F760957095809590959B01AC01BD01D2
:10435000CF010895FC0188279927E8942191203204
:10436000E9F3293010F02E30C8F32B3241F02D3212
:1043700039F4689404C00E94F721820F911D2191A5
:1043800020532A30C0F31EF4909581959F4F0895D5
:10439000FB01DC0102C001900D9241505040D8F762
:1043A0000895DC0101C06D9341505040E0F708953D
:1043B000FB01DC018D91019080190110D9F3990B5B
:1043C0000895FB01DC0101900D920020E1F70895B2
:1043D000FB01DC014150504048F001900D9200205B
:1043E000C9F701C01D9241505040E0F708957AE0AE
:1043F000979F902D879F802D910D11240895F894FB
:02440000FFCFEC
:1044020049444C45000001000200030004FFFF0084
:1044120002000000060000008025000000000000ED
:1044220000000002000000060000008025000000DD
:0C44320000000000000301010300000076
:00000001FF
